S02B0000456C657661746F722050726F6A656374205769746820436F6D6D756E69636174696F6E2E737265638E
S1130000E9C0000007C1000005C1000003C10000F1
S113001001C10000FFC60000FDC00000FBC00000DD
S1130020F9C00000F7C00000F5C00000F3C00000F4
S1130030F1C00000EFC00000EDC00000EBC0000004
S1130040E9C00000E7C00000E5C00000E3C0000014
S1130050E1C00000DFC00000DDC00000DBC0000024
S1130060D9C00000D7C00000D5C00000D3C0000034
S1130070D1C00000CFC00000CDC00000CBC0000044
S1130080C9C00000C7C00000C5C00000C3C0000054
S1130090C1C00000BFC00000BDC00000BBC0000064
S11300A0B9C00000B7C00000B5C00000B3C0000074
S11300B0B1C00000AFC00000ADC00000ABC0000084
S11300C0A9C00000A7C00000A5C00000A3C0000094
S11300D0A1C000009FC000009DC000009BC00000A4
S11300E099C000008001880188018801820188018B
S11300F084018601880188018801880188018801BA
S113010088018801880188018801880188018801A3
S11301108801880188018801880188018801880193
S11301208801880188018801880188018801880183
S11301308801880188018801880188018801880173
S11301408801880188018801880188018801880163
S11301508801880188018801880188018801880153
S11301608801880178018801880188017A01880161
S11301707C017E0188018801880188018801880149
S11301808801880188018801880188018801880123
S11301908801880188018801880188018801880113
S11301A08801880170018801880188017201880131
S11301B07401760188018801880188018801880119
S11301C0880188016A018801880188018A018801FF
S11301D06C016E0111241FBECFEFD1E2DEBFCDBF93
S11301E000E00CBF14E0A0E0B2E0ECE0F5E100E0D8
S11301F00BBF02C007900D92AA31B107D9F724E0D2
S1130200AAE1B4E001C01D92AF3EB207E1F74AD4BF
S11302100C94840AF5CE20E09FEE10C09093080160
S1130220E9EFF0E03197F1F700C00000809106019A
S11302308F708F3029F4990F9F5F2F5F243070F3F4
S1130240907F890F089580EF8093070108958FE0D0
S113025080930801809106018F708F30C1F789EF78
S113026090E00197F1F700C000008FE0809308014F
S1130270809106018F708F3051F708958FE080933D
S11302800801809106018F708F30C1F389EF90E0EF
S11302900197F1F700C000008FE08093080180917E
S11302A006018F708F3051F30895D1DF89EF90E00C
S11302B00197F1F700C00000E1DFADDF90E0FC0141
S11302C0E757F109E837F10518F58827EE58FF4F8D
S11302D08F4FE1C58AE2089584E3089581E3089588
S11302E080E3089588E3089585E3089582E30895FB
S11302F083E2089589E3089586E3089583E30895E6
S113030084E4089583E4089582E4089581E40895DB
S11303108AE7089587E3089585B1806285B900006E
S113032085B18F7D85B90895CF93C82F662331F0A9
S1130330E2E0F1E080818064808305C0E2E0F1E0E6
S113034080818F7B808385B18F7E85B98DB18062FA
S11303508DB983B3806283BB8DB188608DB9E1E0D0
S1130360F1E0808188608083E2E0F1E08081877F32
S113037080838EB1877F8EB984B38F7D84BB8EB129
S11303808F7D8EB9CC231CF4808188608083C6FF66
S113039003C08EB188608EB9C5FF03C084B3806288
S11303A084BBC4FF03C08EB180628EB9B5DFE2E0C6
S11303B0F1E08081877F80838EB1877F8EB984B39B
S11303C08F7D84BB8EB18F7D8EB9C3FF03C08081C6
S11303D088608083C2FF03C08EB188608EB9C1FF7C
S11303E003C084B3806284BBC0FF03C08EB180624B
S11303F08EB992DF8EB180628EB984B3806284BB81
S11304008EB188608EB9E2E0F1E0808188608083FB
S1130410CF910895882331F0E2E0F1E08081806497
S1130420808305C0E2E0F1E080818F7B808385B129
S1130430806185B98DB18F7D8DB983B38F7D83BB89
S11304408DB1877F8DB9E1E0F1E08081877F808382
S113045085B1806285B90000659902C080E001C061
S113046080E195998062639980649091000193FD85
S1130470806895B19F7D95B9000095B1906295B95A
S11304800000659981609599826063998460909178
S1130490000193FD886095B19F7D95B9089580E032
S11304A0B9DF8823E4F300C000C080E0B3CF08952F
S11304B0CF93C82FF4DF60E08C2F36DFCF910895FF
S11304C0611103C08058F4CF08958054F1CF08958A
S11304D081E0EECF0895CF93C82FE1DFCA3041F415
S11304E0803410F480E401C080E08058E1DF03C070
S11304F061E08C2F19DFCF910895CF93DF93FC0136
S113050002C0E9DFFE01EF01219680818111F9CF5C
S1130510DF91CF910895CF93C82FE1E0F1E080817E
S11305208064808384B1806184B984B1806284B939
S11305308DB180628DB983B3806283BB8DB18860D5
S11305408DB98081886080838FE99FE00197F1F7FE
S113055000C0000084B3806284BB8EB180628EB917
S1130560DBDE81EE94E00197F1F700C00000D4DEF9
S113057095E19A95F1F70000CFDE85E18A95F1F7D0
S113058000008EB18F7D8EB9C7DE95E19A95F1F7A3
S1130590000088E28DDF88E08BDF9ADF86E088DF69
S11305A08C2F86DFCF9108958111FFCF08950F938B
S11305B01F93CF93DF938C0160E270E074D4D82F43
S11305C08032A1F480E292E091D4C0E007C0F80147
S11305D0EC0FF11D808190E084D4CF5FCD17B8F388
S11305E08DE592E083D481E0DFDF0DC01F930F938C
S11305F08FE592E09F938F9361D4C8017EDF0F90C3
S11306000F900F900F90DF91CF911F910F9108954C
S1130610EF92FF920F931F93CF93DF93CDB7DEB783
S1130620A8970FB6F894DEBF0FBECDBF51DF82E7A7
S113063092E0BDDF00E010E038DE8F3FE9F390ED9B
S1130640980F9A3070F59801220F331F000F111F75
S1130650000F111F000F111F020F131F090F111D8F
S11306601F930F9382E993E09F938F931F9288E2E5
S11306708F93CE0101967C019F938F9367D4FF9251
S1130680EF9281E892E09F938F9318D461E080E029
S113069017DFC7018CDF0FB6F894DEBF0FBECDBFE6
S11306A0CBCF833211F5C801012E000CAA0BBB0B72
S11306B04091E2045091E3046091E4047091E504F4
S11306C084179507A607B7070CF4B6CF409100022C
S11306D05091010260910202709103024817590778
S11306E06A077B070CF4A8CF2DC08A3209F0A4CF87
S11306F01F921F9282E993E09F938F931F9283E04E
S11307008F938E010F5F1F4F1F930F931FD41F935F
S11307100F9381E892E09F938F93D0D3D9DE60E06A
S113072080E0CEDE82E992E042DF61E080E0C8DE74
S1130730C8013DDF0FB6F894DEBF0FBECDBF00E0A9
S113074010E07ACF84E892E0D1D3C801A8960FB61E
S1130750F894DEBF0FBECDBFDF91CF911F910F91F3
S1130760FF90EF900895EF92FF920F931F93CF9312
S1130770DF93CDB7DEB7A8970FB6F894DEBF0FBEF0
S1130780CDBFA6DE8FE992E012DF00E010E08DDD40
S11307908F3FE9F390ED980F9A3070F59801220F8E
S11307A0331F000F111F000F111F000F111F020F25
S11307B0131F090F111D1F930F9382E993E09F9359
S11307C08F931F9288E28F93CE0101967C019F93B1
S11307D08F93BCD3FF92EF9281E892E09F938F9323
S11307E06DD361E080E06CDEC701E1DE0FB6F89402
S11307F0DEBF0FBECDBFCBCF833211F5C801012EB2
S1130800000CAA0BBB0B4091E2045091E3046091ED
S1130810E4047091E50484179507A607B7070CF460
S1130820B6CF409100025091010260910202709192
S11308300302481759076A077B070CF4A8CF2DC099
S11308408A3209F0A4CF1F921F9282E993E09F930A
S11308508F931F9283E08F938E010F5F1F4F1F931F
S11308600F9374D31F930F9381E892E09F938F9318
S113087025D32EDE60E080E023DE8FE992E097DE70
S113088061E080E01DDEC80192DE0FB6F894DEBFA1
S11308900FBECDBF00E010E07ACF84E892E026D30B
S11308A0C801A8960FB6F894DEBF0FBECDBFDF9186
S11308B0CF911F910F91FF90EF900895CF93DF9305
S11308C01F92CDB7DEB7AC0185B18E7F85B990E0BC
S11308D00BC0FA01E90FF11D20812EBD0DB407FEF6
S11308E0FDCF2EB529839F5F961798F385B181605C
S11308F085B90F90DF91CF9108958091000184FD17
S113090024C08DEA92E09F938F93D8D284B18064FF
S113091084B985B1806485B92FEF87EA91E62150C7
S113092080409040E1F700C0000085B18F7B85B91D
S11309302FEF87EA91E6215080409040E1F700C014
S113094000000F900F9081E0089580E008952091B9
S1130950E0043091E10428173907ACF082179307BB
S1130960A4F02817390799F4B3DD8EEC92E01FDE6A
S11309702FEF87EA91E6215080409040E1F700C0D4
S1130980000085E0089581E0089582E0089585E0FF
S113099008950F931F93CF93DF93CDB7DEB760977E
S11309A00FB6F894DEBF0FBECDBF182F092F90DD10
S11309B060E080E085DD89ED92E0F9DD61E080E0D2
S11309C07FDD0F931F9382E993E09F938F931F9290
S11309D080E18F938E010F5F1F4F1F930F93B6D249
S11309E0C801E5DD0FB6F894DEBF0FBECDBF60963B
S11309F00FB6F894DEBF0FBECDBFDF91CF911F912C
S1130A000F910895CF93DF93EC0119C00196909351
S1130A10E1048093E004BDDF2FEF8BE792E92150DE
S1130A2080409040E1F700C0000088EE92E09F9380
S1130A308F9344D262DF0F900F9081110CC080918C
S1130A40E0049091E1048C179D0704F381E093E0A6
S1130A504DD283E001C085E0DF91CF910895CF931B
S1130A60DF93EC0112C001979093E1048093E004BA
S1130A7090DF2FEF8BE792E9215080409040E1F71F
S1130A8000C000003ADF811109C08091E004909118
S1130A90E104C817D9073CF383E001C085E0DF9186
S1130AA0CF910895CF93DF93CDB7DEB72A970FB6D2
S1130AB0F894DEBF0FBECDBF84B18F7784B985B102
S1130AC0806885B970D101E011E0F80180818F7EE2
S1130AD08083E2E0F1E0808180618083CDD164DDB8
S1130AE084B1876084B98CB581658CBDF80180813F
S1130AF08062808383E193E0F9D18CE00CDDE8DC53
S1130B008CE293E054DD82E393E0F0D1FFEF23ED38
S1130B1030E3F15020403040E1F700C0000093DBA7
S1130B2085E590E09A83898384E490E09C838B83B9
S1130B308FE490E09E838D8383E590E098878F8394
S1130B4083E490E09A87898780E0E12CF12C00E02F
S1130B5010E0C12CD12C05C084E003C085E001C0A5
S1130B6080E0823009F48CC030F4882369F081304D
S1130B7009F477C0F5CF843009F4EBC008F48FC0D2
S1130B80853009F40AC1ECCFCE14DF0409F03DC06E
S1130B901DD1019741F48EE393E09F938F938ED1FF
S1130BA02DD10F900F9034DD9093E8048093E704E7
S1130BB0E80EF91EFF92EF9289E493E09F938F93DE
S1130BC07DD10F900F900F900F9015C0CCDDF801E0
S1130BD0EE0FFF1FE65EFB4F808391839F938F93FD
S1130BE08DE593E09F938F9369D10F5F1F4F0F9013
S1130BF00F900F900F900E151F0544F380E793E0BC
S1130C009F938F935BD10F900F90F601EE0FFF1F10
S1130C10E65EFB4FB080A180AF92BF928DE793E078
S1130C209F938F934BD1DF92CF9285E993E09F936B
S1130C308F9344D18091E8048F938091E7048F933C
S1130C4089E493E09F938F9339D18FEFC81AD80A20
S1130C508B2D9A2D7CDE0FB6F894DEBF0FBECDBF70
S1130C6080CFCE010196FC0101900020E9F7319775
S1130C70BF01681B790B22DE8B2D9A2DC3DE71CF49
S1130C80CE010396FC0101900020E9F73197BF01E2
S1130C90681B790B13DE8B2D9A2DE1DE62CFCE011A
S1130CA00596FC0101900020E9F73197BF01681B0C
S1130CB0790B04DE0DDC8CEA93E079DCFFEF2BE7A3
S1130CC032E9F15020403040E1F700C000001F99A4
S1130CD043CF89EB93E09F938F93F0D0CE01079697
S1130CE0FC0101900020E9F73197BF01681B790BE3
S1130CF0E5DD8CEC93E09F938F93E0D08FEF9AE047
S1130D00E0E981509040E040E1F700C00000E0DB02
S1130D1089ED93E04CDC61E080E0D2DB82EE93E08D
S1130D2046DCFFEF2BE732E9F15020403040E1F799
S1130D3000C000008FEF9AE0E0E981509040E0406D
S1130D40E1F700C000000F900F900F900F9084E027
S1130D5008CF8BEE93E09F938F93B0D0CEDD0F90AE
S1130D600F908111FBCECE010996FC010190002069
S1130D70E9F73197BF01681B790BA0DDA9DB80E09F
S1130D8094E015DCFFEF27EA31E6F15020403040D3
S1130D90E1F700C0000080E0E4CE9ADB8DE094E04F
S1130DA006DC80E0DECE8DB18F7E8DB98EB18061A0
S1130DB08EB98DB380618DBBEAE6F0E080818260FC
S1130DC0808380818E7F8083789408951092E604D6
S1130DD080E00EC02FE33DE093E02150304090408E
S1130DE0E1F700C000009091E604911105C08F5F07
S1130DF08A3080F381E0089580E0089583B7817F8D
S1130E0083BF83B7816083BF7894889583B78E7FCF
S1130E1083BF08951F920F920FB60F9211248F93E0
S1130E2081E08093E6048F910F900FBE0F901F9086
S1130E3018959093C5008093C400E1ECF0E08081A4
S1130E4088618083E2ECF0E080818E608083089585
S1130E509091C00095FFFCCF8093C60080E090E0A5
S1130E6008958091C0008823E4F78091C6008D30F6
S1130E7009F48AE090E0089587E690E0DADFE9EE8D
S1130E80F4E082E192E09383828384E092E09183B0
S1130E90808380E00895EE0FFF1F881F8BBF0790AB
S1130EA0F691E02D1994FC016150704001900110FD
S1130EB0D8F7809590958E0F9F1F0895CF93DF9359
S1130EC0CDB7DEB7AE014A5F5F4FFA016191719110
S1130ED0AF018091EB049091EC0474D0DF91CF9139
S1130EE008956091EB047091EC0474C20F931F9306
S1130EF0CF93DF93E091EB04F091EC04238121FF85
S1130F001BC08C01D0E0C0E0F80181918F01609199
S1130F10EB047091EC04DB011896ED91FC911997A8
S1130F20882331F01995892B79F3DFEFCFEFECCFDC
S1130F308AE01995892B19F08FEF9FEF02C08D2F4E
S1130F409C2FDF91CF911F910F9108950F931F93C1
S1130F50CF93DF93CDB7DEB72E970FB6F894DEBFED
S1130F600FBECDBF0E891F89888D998D26E02C83F5
S1130F701A83098397FF02C080E090E801979E835B
S1130F808D83AE01445E5F4F6A8D7B8DCE010196E9
S1130F9019D04D815E8157FD0AC02F8138854217D3
S1130FA053070CF49A01F801E20FF31F10822E96F6
S1130FB00FB6F894DEBF0FBECDBFDF91CF911F9166
S1130FC00F9108952F923F924F925F926F927F926A
S1130FD08F929F92AF92BF92CF92DF92EF92FF9245
S1130FE00F931F93CF93DF93CDB7DEB72B970FB635
S1130FF0F894DEBF0FBECDBF6C017B018A01FC01FA
S113100017821682838181FFBFC1CE0101963C0104
S1131010F6019381F70193FD859193FF81917F01FF
S1131020882309F4ADC1853239F493FD859193FF8A
S113103081917F01853221F4B60190E0CBD1E8CFD4
S1131040912C212C312CFFE1F315D8F08B3279F05F
S113105038F4803279F08332A1F4232D20611DC04D
S11310608D3261F0803369F4232D216016C0832D05
S11310708260382EE32DE4603E2E2AC0F32DF86002
S11310801DC037FC2DC020ED280F2A3040F08E32D1
S1131090B9F436FC75C1232D2064322E19C036FEF6
S11310A006C08AE0989E200D1124922E11C0EAE019
S11310B02E9E200D1124222EF32DF0623F2E08C007
S11310C08C3621F4832D8068382E02C0883641F492
S11310D0F70193FD859193FF81917F018111B3CF36
S11310E0982F9F7D9554933028F40C5F1F4F9FE3F6
S11310F099830DC0833631F0833771F0833509F05D
S113110055C020C0F801808189830E5F1F4F882459
S11311108394912C530112C02801F2E04F0E511C0C
S1131120F801A080B18036FE03C0692D70E002C0D2
S11311306FEF7FEFC501B7DE4C018201F32DFF771E
S11311403F2E15C0280122E0420E511CF801A08058
S1131150B18036FE03C0692D70E002C06FEF7FEFEF
S1131160C5012DD14C01F32DF0683F2E820133FCD3
S113117019C0822D90E088169906A0F4B60180E289
S113118090E028D12A94F5CFF50137FC859137FEFC
S113119081915F01B60190E01DD121102A9421E0D4
S11311A0821A91088114910479F7E1C0843611F010
S11311B0893639F5F80137FE07C060817181828173
S11311C093810C5F1F4F08C060817181072E000C52
S11311D0880B990B0E5F1F4FF32DFF763F2E97FF61
S11311E009C090958095709561957F4F8F4F9F4F63
S11311F0F0683F2E2AE030E0A30128D1882E86181B
S113120044C0853731F4232D2F7EB22E2AE030E0FE
S113121025C0932D997FB92E8F36C1F018F48835E7
S113122079F0AEC0803719F0883721F0A9C0E92FD2
S1131230E061BE2EB4FE0DC0FB2DF460BF2E09C0CC
S113124034FE0AC0292F2660B22E06C028E030E002
S113125005C020E130E002C020E132E0F801B7FE31
S113126007C060817181828193810C5F1F4F06C02A
S11312706081718180E090E00E5F1F4FA301E6D092
S1131280882E8618FB2DFF773F2E36FE0DC0232DAA
S11312902E7FA22E891458F434FE0BC032FC09C0F0
S11312A0832D8E7EA82E05C0B82CA32C03C0B82C89
S11312B001C0B92CA4FE0FC0FE01E80DF11D808110
S11312C0803321F49A2D997EA92E09C0A2FE06C06E
S11312D0B394B39404C08A2D867809F0B394A3FC24
S11312E010C0A0FE06C0B21480F4280C922C9B18E7
S11312F00DC0B21458F4B60180E290E06BD0B39400
S1131300F8CFB21418F42B1802C0982C212CA4FE88
S11313100FC0B60180E390E05DD0A2FE16C0A1FC30
S113132003C088E790E002C088E590E0B6010CC0F5
S11313308A2D867851F0A1FE02C08BE201C080E2C2
S1131340A7FC8DE2B60190E045D0891430F4B601D3
S113135080E390E03FD09A94F8CF8A94F301E80DAB
S1131360F11D8081B60190E035D08110F6CF2220A6
S113137009F44ECEB60180E290E02CD02A94F7CF47
S1131380F6018681978102C08FEF9FEF2B960FB6EF
S1131390F894DEBF0FBECDBFDF91CF911F910F91A7
S11313A0FF90EF90DF90CF90BF90AF909F908F9081
S11313B07F906F905F904F903F902F900895FC0125
S11313C00590615070400110D8F7809590958E0F6C
S11313D09F1F08950F931F93CF93DF93FB012381E6
S11313E021FD03C08FEF9FEF2CC022FF16C0468162
S11313F05781248135814217530744F4A081B18178
S11314009D012F5F3F4F318320838C932681378149
S11314102F5F3F4F3783268314C08B01EC01FB0100
S11314200084F185E02D1995892BE1F6D8011696F3
S11314308D919C911797019617969C938E9316976E
S1131440CE01DF91CF911F910F910895FA01AA2740
S1131450283051F1203181F1E8946F936E7F6E5FF3
S11314607F4F8F4F9F4FAF4FB1E03ED0B4E03CD0A1
S1131470670F781F891F9A1FA11D680F791F8A1F84
S1131480911DA11D6A0F711D811D911DA11D20D0EB
S113149009F468943F912AE0269F11243019305DA5
S11314A03193DEF6CF010895462F4770405D419396
S11314B0B3E00FD0C9F7F6CF462F4F70405D4A33E3
S11314C018F0495D31FD4052419302D0A9F7EACFAB
S11314D0B4E0A6959795879577956795BA95C9F7DA
S11314E000976105710508959B01AC010A2E0694CD
S11314F05795479537952795BA95C9F7620F731F86
S10F1500841F951FA01D0895F894FFCFD0
S113150C630000000000000100000000000031072F
S113151C000000000002000000002807000000008A
S113152C4661696C656420746F207072696E7420F6
S113153C4C434420737472696E672E20546F6F2071
S113154C626967206F72206C61636B73204E554C1B
S113155C4C2D7465726D696E61746F722E0D004C36
S113156C4344206F75747075743A20272573270DC6
S113157C0A00466C6F6F7220616D6F756E743A2041
S113158C00257300466C6F6F722043686F73656E31
S113159C0D00466C6F6F7220616D6F756E74004335
S11315AC686F6F736520666C6F6F723A0042757466
S11315BC746F6E20666F7220656D657267656E63FD
S11315CC7920697320707265737365642E0053619E
S11315DC6D6520666C6F6F720043757272656E7404
S11315EC20666C6F6F723A00416674657220666C8B
S11315FC6F6F722063686F696365207175657565BB
S113160C00476F696E6720757020697320646F6E74
S113161C650D00496E697469616C697A696E67203D
S113162C4C4344206472697665720D0052656164A2
S113163C79004C43442052656164792E0D00536C3F
S113164C656570206D6F64650053746F72616765B6
S113165C2073697A652069732C20256400416464C5
S113166C656420666C6F6F722069732C202564008E
S113167C436865636B20706F696E742E00546865E3
S113168C2064657374696E6174696F6E2069733A52
S113169C2C2025640050726F6365737320636F751F
S11316AC6E7465722069732C20256400446F6F720C
S11316BC204F70656E696E6700427574746F6E208E
S11316CC697320707265737365642E004461746170
S11316DC2069732073656E74004F62737461636C5C
S11316EC6500446574656374656400537461746562
S11316FC3A20446F6F7220636C6F73696E672E00AF
S113170C446F6F7220436C6F73696E6700456D652F
S10D171C7267656E637921212100D4
S9030000FC
