:10000000E9C0000007C1000005C1000003C10000F5
:1000100001C10000F7C60000FDC00000FBC00000E9
:10002000F9C00000F7C00000F5C00000F3C00000F8
:10003000F1C00000EFC00000EDC00000EBC0000008
:10004000E9C00000E7C00000E5C00000E3C0000018
:10005000E1C00000DFC00000DDC00000DBC0000028
:10006000D9C00000D7C00000D5C00000D3C0000038
:10007000D1C00000CFC00000CDC00000CBC0000048
:10008000C9C00000C7C00000C5C00000C3C0000058
:10009000C1C00000BFC00000BDC00000BBC0000068
:1000A000B9C00000B7C00000B5C00000B3C0000078
:1000B000B1C00000AFC00000ADC00000ABC0000088
:1000C000A9C00000A7C00000A5C00000A3C0000098
:1000D000A1C000009FC000009DC000009BC00000A8
:1000E00099C000008001880188018801820188018F
:1000F00084018601880188018801880188018801BE
:1001000088018801880188018801880188018801A7
:100110008801880188018801880188018801880197
:100120008801880188018801880188018801880187
:100130008801880188018801880188018801880177
:100140008801880188018801880188018801880167
:100150008801880188018801880188018801880157
:100160008801880178018801880188017A01880165
:100170007C017E018801880188018801880188014D
:100180008801880188018801880188018801880127
:100190008801880188018801880188018801880117
:1001A0008801880170018801880188017201880135
:1001B000740176018801880188018801880188011D
:1001C000880188016A018801880188018A01880103
:1001D0006C016E0111241FBECFEFD1E2DEBFCDBF97
:1001E00000E00CBF13E0A0E0B2E0ECEFF4E100E0CF
:1001F0000BBF02C007900D92AE3EB107D9F724E0C5
:10020000AEEEB3E001C01D92A33CB207E1F759D4B2
:100210000C947C0AF5CE20E09FEE10C0909308016C
:10022000E9EFF0E03197F1F700C00000809106019E
:100230008F708F3029F4990F9F5F2F5F243070F3F8
:10024000907F890F089580EF8093070108958FE0D4
:1002500080930801809106018F708F30C1F789EF7C
:1002600090E00197F1F700C000008FE08093080153
:10027000809106018F708F3051F708958FE0809341
:100280000801809106018F708F30C1F389EF90E0F3
:100290000197F1F700C000008FE080930801809182
:1002A00006018F708F3051F30895D1DF89EF90E010
:1002B0000197F1F700C00000E1DFADDF90E0FC0145
:1002C000E757F109E837F10518F58827EE58FF4F91
:1002D0008F4FD9C58AE2089584E3089581E3089594
:1002E00080E3089588E3089585E3089582E30895FF
:1002F00083E2089589E3089586E3089583E30895EA
:1003000084E4089583E4089582E4089581E40895DF
:100310008AE7089587E3089585B1806285B9000072
:1003200085B18F7D85B90895CF93C82F662331F0AD
:10033000E2E0F1E080818064808305C0E2E0F1E0EA
:1003400080818F7B808385B18F7E85B98DB18062FE
:100350008DB983B3806283BB8DB188608DB9E1E0D4
:10036000F1E0808188608083E2E0F1E08081877F36
:1003700080838EB1877F8EB984B38F7D84BB8EB12D
:100380008F7D8EB9CC231CF4808188608083C6FF6A
:1003900003C08EB188608EB9C5FF03C084B380628C
:1003A00084BBC4FF03C08EB180628EB9B5DFE2E0CA
:1003B000F1E08081877F80838EB1877F8EB984B39F
:1003C0008F7D84BB8EB18F7D8EB9C3FF03C08081CA
:1003D00088608083C2FF03C08EB188608EB9C1FF80
:1003E00003C084B3806284BBC0FF03C08EB180624F
:1003F0008EB992DF8EB180628EB984B3806284BB85
:100400008EB188608EB9E2E0F1E0808188608083FF
:10041000CF910895882331F0E2E0F1E0808180649B
:10042000808305C0E2E0F1E080818F7B808385B12D
:10043000806185B98DB18F7D8DB983B38F7D83BB8D
:100440008DB1877F8DB9E1E0F1E08081877F808386
:1004500085B1806285B90000659902C080E001C065
:1004600080E195998062639980649091000193FD89
:10047000806895B19F7D95B9000095B1906295B95E
:10048000000065998160959982606399846090917C
:10049000000193FD886095B19F7D95B9089580E036
:1004A000B9DF8823E4F300C000C080E0B3CF089533
:1004B000CF93C82FF4DF60E08C2F36DFCF91089503
:1004C000611103C08058F4CF08958054F1CF08958E
:1004D00081E0EECF0895CF93C82FE1DFCA3041F419
:1004E000803410F480E401C080E08058E1DF03C074
:1004F00061E08C2F19DFCF910895CF93DF93FC013A
:1005000002C0E9DFFE01EF01219680818111F9CF60
:10051000DF91CF910895CF93C82FE1E0F1E0808182
:100520008064808384B1806184B984B1806284B93D
:100530008DB180628DB983B3806283BB8DB18860D9
:100540008DB98081886080838FE99FE00197F1F702
:1005500000C0000084B3806284BB8EB180628EB91B
:10056000DBDE81EE94E00197F1F700C00000D4DEFD
:1005700095E19A95F1F70000CFDE85E18A95F1F7D4
:1005800000008EB18F7D8EB9C7DE95E19A95F1F7A7
:10059000000088E28DDF88E08BDF9ADF86E088DF6D
:1005A0008C2F86DFCF9108958111FFCF08950F938F
:1005B0001F93CF93DF938C0160E270E06CD4D82F4F
:1005C0008032A0F080E292E089D4C0E007C0F80158
:1005D000EC0FF11D808190E07CD4CF5FCD17B8F394
:1005E0008DE592E07BD481E0DFDF0DC01F930F9398
:1005F0008FE592E09F938F9359D4C8017EDF0F90CF
:100600000F900F900F90DF91CF911F910F91089550
:10061000EF92FF920F931F93CF93DF93CDB7DEB787
:10062000A8970FB6F894DEBF0FBECDBF51DF82E7AB
:1006300092E0BDDF00E010E038DE8F3FE9F390ED9F
:10064000980F9A3070F59801220F331F000F111F79
:10065000000F111F000F111F020F131F090F111D93
:100660001F930F938BE993E09F938F931F9288E2E0
:100670008F93CE0101967C019F938F935FD4FF925D
:10068000EF9281E892E09F938F9310D461E080E035
:1006900017DFC7018CDF0FB6F894DEBF0FBECDBFEA
:1006A000CBCF8332C1F5C801012E000CAA0BBB0BC6
:1006B0004091B6045091B7046091B8047091B904A8
:1006C00084179507A607B70774F040910002509170
:1006D00001026091020270910302481759076A07EC
:1006E0007B070CF045C0F4DE82E992E060DF61E058
:1006F00080E0E6DE8FE992E05ADF9FEF27EA81E6AD
:10070000915020408040E1F700C00000E1DE85EA22
:1007100092E04DDF91CF8A3209F08ECF1F921F9267
:100720008BE993E09F938F931F9283E08F938E01C9
:100730000F5F1F4F1F930F9301D41F930F9381E8F7
:1007400092E09F938F93B2D3C3DE60E080E0B8DE87
:1007500083EB92E02CDF61E080E0B2DEC80127DFAE
:100760000FB6F894DEBF0FBECDBF00E010E064CF3F
:1007700084E892E0B3D3C801A8960FB6F894DEBF20
:100780000FBECDBFDF91CF911F910F91FF90EF90E2
:100790000895EF92FF920F931F93CF93DF93CDB7FE
:1007A000DEB7A8970FB6F894DEBF0FBECDBF90DEC0
:1007B00081EC92E0FCDE00E010E077DD8F3FE9F3B2
:1007C00090ED980F9A3070F59801220F331F000FAB
:1007D000111F000F111F000F111F020F131F090F10
:1007E000111D1F930F938BE993E09F938F931F929B
:1007F00088E28F93CE0101967C019F938F939ED3C5
:10080000FF92EF9281E892E09F938F934FD361E044
:1008100080E056DEC701CBDE0FB6F894DEBF0FBE18
:10082000CDBFCBCF833211F5C801012E000CAA0B2E
:10083000BB0B4091B6045091B7046091B80470911D
:10084000B90484179507A607B7070CF4B6CF4091F3
:100850000002509101026091020270910302481758
:1008600059076A077B070CF4A8CF2DC08A3209F01C
:10087000A4CF1F921F928BE993E09F938F931F92B7
:1008800083E08F938E010F5F1F4F1F930F9356D3FB
:100890001F930F9381E892E09F938F9307D318DE05
:1008A00060E080E00DDE81EC92E081DE61E080E0DE
:1008B00007DEC8017CDE0FB6F894DEBF0FBECDBFE9
:1008C00000E010E07ACF84E892E008D3C801A8964F
:1008D0000FB6F894DEBF0FBECDBFDF91CF911F9151
:1008E0000F91FF90EF900895CF93DF931F92CDB7B4
:1008F000DEB7AC0185B18E7F85B990E00BC0FA01FF
:10090000E90FF11D20812EBD0DB407FEFDCF2EB5E0
:1009100029839F5F961798F385B1816085B90F9001
:10092000DF91CF9108958091000184FD24C08FEC68
:1009300092E09F938F93BAD284B1806484B985B1D9
:10094000806485B92FEF87EA91E62150804090407E
:10095000E1F700C0000085B18F7B85B92FEF87EAF2
:1009600091E6215080409040E1F700C000000F90D8
:100970000F9081E0089580E008952091B4043091B3
:10098000B50428173907ACF082179307A4F028178D
:10099000390799F49DDD80EF92E009DE2FEF87EAB9
:1009A00091E6215080409040E1F700C0000080E0D7
:1009B000089581E0089582E0089580E008950F93FE
:1009C0001F93CF93DF93CDB7DEB760970FB6F89440
:1009D000DEBF0FBECDBF182F092F7ADD60E080E0AB
:1009E0006FDD8BEF92E0E3DD61E080E069DD0F9386
:1009F0001F938BE993E09F938F931F9280E18F93D6
:100A00008E010F5F1F4F1F930F9398D2C801CFDD48
:100A10000FB6F894DEBF0FBECDBF60960FB6F89448
:100A2000DEBF0FBECDBFDF91CF911F910F91089513
:100A3000CF93DF93EC0112C001969093B50480939D
:100A4000B404BDDF2FEF8BE792E921508040904046
:100A5000E1F700C0000067DF81110CC08091B40491
:100A60009091B5048C179D073CF38AE093E036D251
:100A700083E001C085E0DF91CF910895CF93DF93AC
:100A8000EC0112C001979093B5048093B40497DFF2
:100A90002FEF8BE792E9215080409040E1F700C0B2
:100AA000000041DF811109C08091B4049091B50428
:100AB000C817D9073CF383E001C085E0DF91CF91EF
:100AC0000895CF93DF93CDB7DEB72A970FB6F8948A
:100AD000DEBF0FBECDBF84B18F7784B985B180688A
:100AE00085B959D1E1E0F1E080818F7E8083E2E039
:100AF000F1E0808180618083B7D156DD84B1876069
:100B000084B98CB581658CBD8CE193E0E7D18CE034
:100B100002DDDEDC85E393E04ADD8BE393E0DED1AA
:100B20002FEF33ED80E3215030408040E1F700C0EB
:100B3000000089DB85E590E09A83898384E490E076
:100B40009C838B838FE490E09E838D8383E590E08C
:100B500098878F8383E490E09A87898780E0E12CEF
:100B6000F12C00E010E0C12CD12C05C084E003C0C2
:100B700085E001C080E0823009F48CC030F4882325
:100B800069F0813009F477C0F5CF843009F4D4C01E
:100B900008F48FC0853009F4ECC0ECCFCE14DF042C
:100BA00009F03DC00BD1019741F487E493E09F9396
:100BB0008F937CD11BD10F900F902ADD9093BC04B2
:100BC0008093BB04E80EF91EFF92EF9282E593E05A
:100BD0009F938F936BD10F900F900F900F9015C034
:100BE000D8DDF801EE0FFF1FE251FC4F80839183A7
:100BF0009F938F9386E693E09F938F9357D10F5FD8
:100C00001F4F0F900F900F900F900E151F0544F37C
:100C100089E793E09F938F9349D10F900F90F6014E
:100C2000EE0FFF1FE251FC4FB080A180AF92BF9248
:100C300086E893E09F938F9339D1DF92CF928EE92C
:100C400093E09F938F9332D18091BC048F938091D6
:100C5000BB048F9382E593E09F938F9327D19FEFFF
:100C6000C91AD90A8B2D9A2D88DE0FB6F894DEBFEB
:100C70000FBECDBF80CFCE010196FC0101900020B8
:100C8000E9F73197BF01681B790B2EDE8B2D9A2D6A
:100C9000CFDE71CFCE010396FC0101900020E9F771
:100CA0003197BF01681B790B1FDE8B2D9A2DE6DE75
:100CB00062CFCE010596FC0101900020E9F7319743
:100CC000BF01681B790B10DE03DC85EB93E06FDC62
:100CD0003FEF8BE792E9315080409040E1F700C050
:100CE00000001F9943CFCE010796FC010190002020
:100CF000E9F73197BF01681B790BF6DDE9DB82EC80
:100D000093E055DC61E080E0DBDB8BEC93E04FDCD3
:100D10002FEF3BE782E9215030408040E1F700C0EF
:100D200000009FEF20EB3EE9915020403040E1F77A
:100D300000C0000084E01FCFF6DD811119CFCE0185
:100D40000996FC0101900020E9F73197BF01681B6B
:100D5000790BCADDBDDB84ED93E029DC8FEF97EAE8
:100D600021E6815090402040E1F700C0000080E083
:100D700002CFAEDB60E080E0A3DB81EE93E017DC26
:100D80003FEF87EA91E6315080409040E1F700C0A4
:100D9000000080E0F0CE8DB18F7E8DB98EB1806184
:100DA0008EB98DB380618DBBEAE6F0E08081826010
:100DB000808380818E7F8083789408951092BA0416
:100DC00080E00EC02FE33DE093E0215030409040A2
:100DD000E1F700C000009091BA04911105C08F5F47
:100DE0008A3080F381E0089580E0089583B7817FA1
:100DF00083BF83B7816083BF7894889583B78E7FE4
:100E000083BF08951F920F920FB60F9211248F93F4
:100E100081E08093BA048F910F900FBE0F901F90C6
:100E200018959093C5008093C400E1ECF0E08081B8
:100E300088618083E2ECF0E080818E608083089599
:100E40009091C00095FFFCCF8093C60080E090E0B9
:100E500008958091C0008823E4F78091C6008D300A
:100E600009F48AE090E0089587E690E0DADFEDEBA0
:100E7000F4E082E192E09383828384E092E09183C4
:100E8000808380E00895EE0FFF1F881F8BBF0790BF
:100E9000F691E02D1994FC01615070400190011011
:100EA000D8F7809590958E0F9F1F0895CF93DF936D
:100EB000CDB7DEB7AE014A5F5F4FFA016191719124
:100EC000AF018091BF049091C00474D0DF91CF91A5
:100ED00008956091BF047091C00474C20F931F9372
:100EE000CF93DF93E091BF04F091C004238121FFF1
:100EF0001BC08C01D0E0C0E0F80181918F016091AE
:100F0000BF047091C004DB011896ED91FC91199714
:100F1000882331F01995892B79F3DFEFCFEFECCFF0
:100F20008AE01995892B19F08FEF9FEF02C08D2F62
:100F30009C2FDF91CF911F910F9108950F931F93D5
:100F4000CF93DF93CDB7DEB72E970FB6F894DEBF01
:100F50000FBECDBF0E891F89888D998D26E02C8309
:100F60001A83098397FF02C080E090E801979E836F
:100F70008D83AE01445E5F4F6A8D7B8DCE010196FD
:100F800019D04D815E8157FD0AC02F8138854217E7
:100F900053070CF49A01F801E20FF31F10822E960A
:100FA0000FB6F894DEBF0FBECDBFDF91CF911F917A
:100FB0000F9108952F923F924F925F926F927F927E
:100FC0008F929F92AF92BF92CF92DF92EF92FF9259
:100FD0000F931F93CF93DF93CDB7DEB72B970FB649
:100FE000F894DEBF0FBECDBF6C017B018A01FC010E
:100FF00017821682838181FFBFC1CE0101963C0119
:10100000F6019381F70193FD859193FF81917F0113
:10101000882309F4ADC1853239F493FD859193FF9E
:1010200081917F01853221F4B60190E0CBD1E8CFE8
:10103000912C212C312CFFE1F315D8F08B3279F073
:1010400038F4803279F08332A1F4232D20611DC061
:101050008D3261F0803369F4232D216016C0832D19
:101060008260382EE32DE4603E2E2AC0F32DF86016
:101070001DC037FC2DC020ED280F2A3040F08E32E5
:10108000B9F436FC75C1232D2064322E19C036FE0A
:1010900006C08AE0989E200D1124922E11C0EAE02D
:1010A0002E9E200D1124222EF32DF0623F2E08C01B
:1010B0008C3621F4832D8068382E02C0883641F4A6
:1010C000F70193FD859193FF81917F018111B3CF4A
:1010D000982F9F7D9554933028F40C5F1F4F9FE30A
:1010E00099830DC0833631F0833771F0833509F071
:1010F00055C020C0F801808189830E5F1F4F88246E
:101100008394912C530112C02801F2E04F0E511C20
:10111000F801A080B18036FE03C0692D70E002C0E6
:101120006FEF7FEFC501B7DE4C018201F32DFF7732
:101130003F2E15C0280122E0420E511CF801A0806C
:10114000B18036FE03C0692D70E002C06FEF7FEF03
:10115000C5012DD14C01F32DF0683F2E820133FCE7
:1011600019C0822D90E088169906A0F4B60180E29D
:1011700090E028D12A94F5CFF50137FC859137FE10
:1011800081915F01B60190E01DD121102A9421E0E8
:10119000821A91088114910479F7E1C0843611F024
:1011A000893639F5F80137FE07C060817181828187
:1011B00093810C5F1F4F08C060817181072E000C66
:1011C000880B990B0E5F1F4FF32DFF763F2E97FF75
:1011D00009C090958095709561957F4F8F4F9F4F77
:1011E000F0683F2E2AE030E0A30128D1882E86182F
:1011F00044C0853731F4232D2F7EB22E2AE030E013
:1012000025C0932D997FB92E8F36C1F018F48835FB
:1012100079F0AEC0803719F0883721F0A9C0E92FE6
:10122000E061BE2EB4FE0DC0FB2DF460BF2E09C0E0
:1012300034FE0AC0292F2660B22E06C028E030E016
:1012400005C020E130E002C020E132E0F801B7FE45
:1012500007C060817181828193810C5F1F4F06C03E
:101260006081718180E090E00E5F1F4FA301E6D0A6
:10127000882E8618FB2DFF773F2E36FE0DC0232DBE
:101280002E7FA22E891458F434FE0BC032FC09C004
:10129000832D8E7EA82E05C0B82CA32C03C0B82C9D
:1012A00001C0B92CA4FE0FC0FE01E80DF11D808124
:1012B000803321F49A2D997EA92E09C0A2FE06C082
:1012C000B394B39404C08A2D867809F0B394A3FC38
:1012D00010C0A0FE06C0B21480F4280C922C9B18FB
:1012E0000DC0B21458F4B60180E290E06BD0B39414
:1012F000F8CFB21418F42B1802C0982C212CA4FE9D
:101300000FC0B60180E390E05DD0A2FE16C0A1FC44
:1013100003C088E790E002C088E590E0B6010CC009
:101320008A2D867851F0A1FE02C08BE201C080E2D6
:10133000A7FC8DE2B60190E045D0891430F4B601E7
:1013400080E390E03FD09A94F8CF8A94F301E80DBF
:10135000F11D8081B60190E035D08110F6CF2220BA
:1013600009F44ECEB60180E290E02CD02A94F7CF5B
:10137000F6018681978102C08FEF9FEF2B960FB603
:10138000F894DEBF0FBECDBFDF91CF911F910F91BB
:10139000FF90EF90DF90CF90BF90AF909F908F9095
:1013A0007F906F905F904F903F902F900895FC0139
:1013B0000590615070400110D8F7809590958E0F80
:1013C0009F1F08950F931F93CF93DF93FB012381FA
:1013D00021FD03C08FEF9FEF2CC022FF16C0468176
:1013E0005781248135814217530744F4A081B1818C
:1013F0009D012F5F3F4F318320838C93268137815E
:101400002F5F3F4F3783268314C08B01EC01FB0114
:101410000084F185E02D1995892BE1F6D801169607
:101420008D919C911797019617969C938E93169782
:10143000CE01DF91CF911F910F910895FA01AA2754
:10144000283051F1203181F1E8946F936E7F6E5F07
:101450007F4F8F4F9F4FAF4FB1E03ED0B4E03CD0B5
:10146000670F781F891F9A1FA11D680F791F8A1F98
:10147000911DA11D6A0F711D811D911DA11D20D0FF
:1014800009F468943F912AE0269F11243019305DB9
:101490003193DEF6CF010895462F4770405D4193AA
:1014A000B3E00FD0C9F7F6CF462F4F70405D4A33F7
:1014B00018F0495D31FD4052419302D0A9F7EACFBF
:1014C000B4E0A6959795879577956795BA95C9F7EE
:1014D00000976105710508959B01AC010A2E0694E1
:1014E0005795479537952795BA95C9F7620F731F9A
:0C14F000841F951FA01D0895F894FFCFE5
:1014FC00630000000000000100000000000029074C
:10150C0000000000000200000000200700000000A6
:10151C004661696C656420746F207072696E74200A
:10152C004C434420737472696E672E20546F6F2085
:10153C00626967206F72206C61636B73204E554C2F
:10154C004C2D7465726D696E61746F722E0D004C4A
:10155C004344206F75747075743A20272573270DDA
:10156C000A00466C6F6F7220616D6F756E743A2055
:10157C0000257300466C6F6F722043686F73656E45
:10158C000D004F7665722053746F72616765004C65
:10159C00696D697400466C6F6F7220416D6F756E6A
:1015AC00743A00466C6F6F7220616D6F756E743A91
:1015BC000043686F6F736520666C6F6F723A004200
:1015CC007574746F6E20666F7220656D65726765D9
:1015DC006E637920697320707265737365642E0075
:1015EC0053616D6520666C6F6F7200437572726526
:1015FC006E7420666C6F6F723A00476F696E67206D
:10160C00757020697320646F6E650D00496E697486
:10161C0069616C697A696E67204C43442064726915
:10162C007665720D005265616479004C434420521A
:10163C00656164792E0D00536C656570206D6F6467
:10164C00650053746F726167652073697A652069F0
:10165C00732C20256400416464656420666C6F6F94
:10166C00722069732C20256400436865636B2070BD
:10167C006F696E742E005468652064657374696EAE
:10168C006174696F6E2069733A2C20256400507266
:10169C006F6365737320636F756E74657220697305
:1016AC002C20256400446F6F72204F70656E696E3C
:1016BC0067004F62737461636C65004465746563A5
:1016CC0074656400446F6F7220436C6F73696E674E
:0E16DC0000456D657267656E637921212100FE
:00000001FF
