S02B0000456C657661746F722050726F6A656374205769746820436F6D6D756E69636174696F6E2028554E4F2F
S11300000C9434000C9451000C9451000C94510045
S11300100C9451000C9451000C9451000C94510018
S11300200C9451000C9451000C9451000C94510008
S11300300C9451000C9451000C9451000C945100F8
S11300400C9451000C9451000C9451000C945100E8
S11300500C9451000C9451000C9451000C945100D8
S11300600C9451000C94510011241FBECFEFD8E022
S1130070DEBFCDBF11E0A0E0B1E0E0E3FAE002C0F2
S113008005900D92A239B107D9F721E0A2E9B1E0B8
S113009001C01D92A839B207E1F70E948A010C94AD
S11300A016050C9400009093C5008093C400E1EC05
S11300B0F0E0808188618083E2ECF0E080818E60F2
S11300C0808308959091C00095FFFCCF8093C60073
S11300D080E090E008958091C0008823E4F7809147
S11300E0C6008D3009F48AE090E0089587E690E038
S11300F00E945300E2E9F1E08EE091E09383828371
S113010080E091E09183808380E00895DC01ED91AB
S1130110FC911197408121E030E0C90114960C90C4
S113012002C0880F991F0A94E2F7842B80830895F4
S1130130DC01ED91FC911197408121E030E0B9019F
S113014014960C9002C0660F771F0A94E2F7CB0155
S11301508095842380830895DC011296ED91FC91AF
S11301601397408121E030E0C90114960C9002C03D
S1130170880F991F0A94E2F7842B808308958CE2F8
S113018091E00E94AC008CE291E00E9486002FEF87
S11301908BE792E9215080409040E1F700C00000D5
S11301A08CE291E00E949800089584E291E00E941C
S11301B0AC0084E291E00E9486002FEF87EA91E68A
S11301C0215080409040E1F700C0000084E291E0BB
S11301D00E949800089584E391E00E94AC0084E3B7
S11301E091E00E9486002FEF87EA91E6215080403B
S11301F09040E1F700C0000084E391E00E94980081
S1130200089507C08FE99FE00197F1F700C000004F
S1130210C9019C0121503109892BA1F708950F933D
S11302201F93CF93DF938B01009721F4CB010E949E
S1130230010127C0A0E0B0E09C01AD01012E1BE04C
S1130240220F331F441F551F1A95D1F7102D60E05C
S113025074E284EF90E00E940F0221503109309340
S113026089002093880080E480938000C1E8D0E076
S11302708DE08883C8010E940101188285B18D7FB9
S113028085B9DF91CF911F910F9108950F931F931B
S1130290CF93DF93CDB7DEB7A4970FB6F894DEBF44
S11302A00FBECDBF82E1ECE3F1E0DE0111960190D7
S11302B00D928A95E1F782E1EEE4F1E0DE015396D6
S11302C001900D928A95E1F700E010E015C0F80165
S11302D0EE0FFF1F81E090E08C0F9D1FE80FF91FC8
S11302E062897389808191810E940F0182E390E089
S11302F00E9401010F5F1F4F0930110544F3A496BA
S11303000FB6F894DEBF0FBECDBFDF91CF911F9122
S11303100F910895CF93DF93CDB7DEB764970FB6EF
S1130320F894DEBF0FBECDBF0E94760084B1806119
S113033084B98CB580648CBD84B1826084B982E157
S1130340E0E6F1E0DE01119601900D928A95E1F765
S11303501C8A1B8A80E05EC0E1E0F0E0EC0FFD1F28
S1130360E80FF11D87FDFA9580818EBD0DB407FE5F
S1130370FDCF1EB5812F90E00E944702153511F084
S1130380143411F40E94EB001F3411F01335E1F51D
S11303901F3451F40E94BF0084E791E09F938F9330
S11303A00E9431020F900F90133571F584E891E0AB
S11303B09F938F930E9431028CE191E00E94AC00E4
S11303C00F900F90F12C1BC08CE191E00E948600ED
S11303D02FEF83ED90E3215080409040E1F700C07F
S11303E000008CE191E00E9498002FEF83ED90E3F0
S11303F0215080409040E1F700C00000F39422E0D7
S11304002F1510F70E944601133411F40E94D500F1
S113041081E0800F082F843108F49ECF9BCFA1E2A6
S11304201A2EAA1BBB1BFD010DC0AA1FBB1FEE1F6A
S1130430FF1FA217B307E407F50720F0A21BB30BB5
S1130440E40BF50B661F771F881F991F1A9469F731
S113045060957095809590959B01AC01BD01CF018D
S11304600895A0E0B0E0E7E3F2E00C94EF04AE01FD
S11304704B5F5F4FFA0161917191AF0180919401DB
S1130480909195010E944E02E2E00C940B0560915C
S11304909401709195010E9445040895ABE0B0E089
S11304A0E4E5F2E00C94DF046C017B018A01FC01B9
S11304B017821682838181FFCCC1CE0101963C0153
S11304C0F6019381F70193FD859193FF81917F015B
S11304D0882309F4BAC1853239F493FD859193FFD9
S11304E081917F01853229F4B60190E00E94450490
S11304F0E7CF912C212C312CFFE1F315D8F08B326E
S113050079F038F4803279F08332A1F4232D20611C
S11305101DC08D3261F0803369F4232D216016C033
S1130520832D8260382EE32DE4603E2E2AC0F32D05
S1130530F8601DC037FC2DC020ED280F2A3040F094
S11305408E32B9F436FC81C1232D2064322E19C0B9
S113055036FE06C08AE0989E200D1124922E11C00A
S1130560EAE02E9E200D1124222EF32DF0623F2E60
S113057008C08C3621F4832D8068382E02C088365A
S113058041F4F70193FD859193FF81917F018111DE
S1130590B3CF982F9F7D9554933028F40C5F1F4F51
S11305A09FE399830DC0833631F0833771F083352F
S11305B009F059C021C0F801808189830E5F1F4F63
S11305C088248394912C530113C02801F2E04F0E28
S11305D0511CF801A080B18036FE03C0692D70E083
S11305E002C06FEF7FEFC5010E943A044C01820103
S11305F0F32DFF773F2E16C0280122E0420E511C36
S1130600F801A080B18036FE03C0692D70E002C0FD
S11306106FEF7FEFC5010E942F044C01F32DF068AA
S11306203F2E820133FC1BC0822D90E08816990670
S1130630B0F4B60180E290E00E9445042A94F4CF1D
S1130640F50137FC859137FE81915F01B60190E099
S11306500E94450421102A9421E0821A91088114F1
S1130660910471F7E8C0843611F0893641F5F80138
S113067037FE07C060817181828193810C5F1F4FB7
S113068008C060817181072E000C880B990B0E5FE6
S11306901F4FF32DFF763F2E97FF09C0909580954D
S11306A0709561957F4F8F4F9F4FF0683F2E2AE0E2
S11306B030E0A3010E948104882E861845C0853746
S11306C031F4232D2F7EB22E2AE030E025C0932D65
S11306D0997FB92E8F36C1F018F4883579F0B5C0FA
S11306E0803719F0883721F0B0C0E92FE061BE2EC1
S11306F0B4FE0DC0FB2DF460BF2E09C034FE0AC049
S1130700292F2660B22E06C028E030E005C020E183
S113071030E002C020E132E0F801B7FE07C060819A
S11307207181828193810C5F1F4F06C0608171814A
S113073080E090E00E5F1F4FA3010E948104882E89
S11307408618FB2DFF773F2E36FE0DC0232D2E7FFE
S1130750A22E891458F434FE0BC032FC09C0832D38
S11307608E7EA82E05C0B82CA32C03C0B82C01C0C3
S1130770B92CA4FE0FC0FE01E80DF11D8081803369
S113078021F49A2D997EA92E09C0A2FE06C0B39425
S1130790B39404C08A2D867809F0B394A3FC11C0E5
S11307A0A0FE06C0B21488F4280C922C9B180EC02C
S11307B0B21460F4B60180E290E00E944504B39460
S11307C0F7CFB21418F42B1802C0982C212CA4FED5
S11307D010C0B60180E390E00E944504A2FE17C059
S11307E0A1FC03C088E790E002C088E590E0B60170
S11307F00CC08A2D867859F0A1FE02C08BE201C09C
S113080080E2A7FC8DE2B60190E00E9445048914C1
S113081038F4B60180E390E00E9445049A94F7CF3F
S11308208A94F301E80DF11D8081B60190E00E94E5
S113083045048110F5CF222009F442CEB60180E2AE
S113084090E00E9445042A94F6CFF60186819781B0
S113085002C08FEF9FEF2B96E2E10C94FB04FC01A6
S11308600590615070400110D8F7809590958E0FD7
S11308709F1F0895FC016150704001900110D8F74A
S1130880809590958E0F9F1F08950F931F93CF937C
S1130890DF93FB01238121FD03C08FEF9FEF2CC069
S11308A022FF16C0468157812481358142175307A0
S11308B044F4A081B1819D012F5F3F4F3183208398
S11308C08C93268137812F5F3F4F3783268314C053
S11308D08B01EC01FB010084F185E02D0995892B46
S11308E0E1F6D80116968D919C911797019617966B
S11308F09C938E931697CE01DF91CF911F910F9108
S11309000895FA01AA27283051F1203181F1E894A1
S11309106F936E7F6E5F7F4F8F4F9F4FAF4FB1E0EE
S11309203ED0B4E03CD0670F781F891F9A1FA11DE9
S1130930680F791F8A1F911DA11D6A0F711D811DEA
S1130940911DA11D20D009F468943F912AE0269FAF
S113095011243019305D3193DEF6CF010895462F0E
S11309604770405D4193B3E00FD0C9F7F6CF462FEF
S11309704F70405D4A3318F0495D31FD4052419358
S113098002D0A9F7EACFB4E0A69597958795779515
S11309906795BA95C9F700976105710508959B019C
S11309A0AC010A2E06945795479537952795BA9525
S11309B0C9F7620F731F841F951FA01D08952F92FE
S11309C03F924F925F926F927F928F929F92AF92DB
S11309D0BF92CF92DF92EF92FF920F931F93CF9328
S11309E0DF93CDB7DEB7CA1BDB0B0FB6F894DEBFBF
S11309F00FBECDBF09942A88398848885F846E84E5
S1130A007D848C849B84AA84B984C884DF80EE802E
S1130A10FD800C811B81AA81B981CE0FD11D0FB637
S1130A20F894DEBF0FBECDBFED010895F894FFCF5B
S1130A30000000010000000000006B000000000046
S1130A400002000000006200000000002B002A00E9
S1130A50040029002B002A00050029002B002A008D
S1130A60030029002B002A000200290093024B02F4
S1130A700B02EE010B024B02930293029302FA0063
S1130A80FA00FA00FA00FA00FA00FA00FA00F40197
S1130A90536C61766520746F206D61737465720A9E
S1130AA00D000000446F6F72206973206F70656ED3
S1130AB065642E00446174612052656365697665DE
S1050AC06400CC
S9030000FC
